S014000046696E616C50726F6A6563742E737265634F
S113000056C0000071C000006FC000006DC0000049
S11300106BC0000069C0000067C0000065C000003C
S113002063C0000061C000005FC000005DC000004C
S11300305BC0000099C0000057C0000055C000001C
S113004053C0000051C000004FC000004DC000006C
S11300504BC0000049C0000047C0000045C000007C
S113006043C0000041C000003FC000003DC000008C
S11300703BC0000039C0000037C0000035C000009C
S113008033C0000031C000002FC000007A047E0499
S1130090890494049F04AA04B504C004CB04E004B6
S11300A0E204E404E604E804EA04EC04EE041124A3
S11300B01FBECFEFD0E4DEBFCDBF11E0A0E0B1E0C2
S11300C0E0ECFBE000E00BBF02C007900D92AA3009
S11300D0B107D9F721E0AAE0B1E001C01D92AD312A
S11300E0B207E1F786D46AC58BCF80E480937C00A5
S11300F087E880937A000895ECE7F0E09081987F98
S11301008770892B8083EAE7F0E0808180648083B4
S1130110808186FDFDCF80917800909179000895CB
S11301208BE0809381008DE790E090938900809329
S1130130880082E080936F00109285001092840002
S11301408091040190910501A0910601B0910701ED
S113015080930A0190930B01A0930C01B0930D01BD
S11301608FB780688FBF08951F920F920FB60F92BA
S113017011248F939F93AF93BF9380910A01909121
S11301800B01A0910C01B0910D010197A109B109D6
S113019080930A0190930B01A0930C01B0930D017D
S11301A0892B8A2B8B2B99F481E080930E0180910B
S11301B0040190910501A0910601B091070180937B
S11301C00A0190930B01A0930C01B0930D01BF9110
S11301D0AF919F918F910F900FBE0F901F90189524
S11301E060930401709305018093060190930701C5
S11301F060930A0170930B0180930C0190930D019D
S11302000895509114014091130120E030E061E021
S113021070E0CB01022E02C0880F991F0A94E2F706
S11302208095582348232F5F3F4F2830310589F7A5
S1130230509314014093130180911501807F8093A2
S113024015010895509114014091130120E030E00C
S113025061E070E0CB01022E02C0880F991F0A945E
S1130260E2F78095582348232F5F3F4F283031050C
S113027089F75093140140931301809115018F6005
S113028080931501089580911B01813041F018F08D
S1130290823049F00CC081E080931B0110C082E0E1
S11302A080931B010EC081E080931B0108C0813044
S11302B031F018F0823031F404C0A3CF0895C2CFD6
S11302C008959FCF089580911901823011F128F487
S11302D0882341F0813069F04CC0833051F184307F
S11302E0C1F147C0109212018CDF81E080931901A3
S11302F04BC08091120190910801891306C082E0DD
S1130300809319011092120146C08F5F80931201ED
S11303103BC08091120190910801891306C083E0CB
S113032080931901109212013DC08F5F80931201D6
S113033032C08091120190910801891306C084E0B3
S1130340809319011092120134C08F5F80931201BF
S113035029C08091120190910801891306C081E09F
S113036080931901109212010FC08F5F80931201C4
S113037020C0823081F018F4813009F505C0833043
S113038089F08430E1F415C080911501877F816084
S1130390809315010895809115018E7F826080936A
S11303A015010895809115018D7F84608093150156
S11303B00895809115018B7F8860809315010895BD
S11303C080911801823011F128F4882341F08130A2
S11303D069F04CC0833051F18430C1F147C032DF41
S11303E01092120181E0809318014BC08091120198
S11303F090910801891306C082E08093180110923D
S1130400120146C08F5F809312013BC0809112019C
S113041090910801891306C083E08093180110921B
S113042012013DC08F5F8093120132C0809112018E
S113043090910801891306C084E0809318011092FA
S1130440120134C08F5F8093120129C08091120180
S113045090910801891306C081E0809318011092DD
S113046012010FC08F5F8093120120C0823081F08F
S113047018F4813009F505C0833089F08430E1F443
S113048015C080EF809314018FEF809313010895BA
S11304908FE0809314018FEF80931301089580EF10
S11304A0809313018FEF8093140108958FE080935C
S11304B013018FEF80931401089580911C01823001
S11304C011F128F4882341F0813069F04EC0833063
S11304D051F18430C1F149C094DE1092120181E0DF
S11304E080931C014DC080911201909108018913E1
S11304F006C082E080931C011092120147C08F5FF6
S1130500809312013DC080911201909108018913DA
S113051006C083E080931C01109212013DC08F5FDE
S11305208093120133C080911201909108018913C4
S113053006C084E080931C011092120133C08F5FC7
S11305408093120129C080911201909108018913AE
S113055008C01092150181E080931C0110921201D1
S11305600FC08F5F809312011DC0823079F018F4A0
S11305708130E9F405C0833079F08430C1F412C0CD
S11305808091150181608093150108958091150172
S11305908260809315010895809115018460809391
S11305A015010895809115018860809315010895BF
S11305B0CF93DF9390911A01913041F118F092306A
S11305C0B1F163C0109212011CDE8DD28370907859
S11305D0992324F401978C6F9F6F0196D82F83D2AF
S11305E081709078992324F401978E6F9F6F019600
S11305F0C82F79D287709078992324F40197886F53
S11306009F6F019691E090931A0144C0909112015A
S1130610923031F482E080931A011092120168C082
S11306209F5F9093120191E090931A0133C08091DF
S11306301201823019F557D283709078992324F4EB
S113064001978C6F9F6F0196D82F4DD2817090784F
S1130650992324F401978E6F9F6F0196C82F43D27C
S113066087709078992324F40197886F9F6F01967F
S113067091E090931A01109212010CC08F5F809345
S1130680120182E080931A0133C0913019F0923044
S113069081F52EC021E030E002C0220F331FDA952D
S11306A0E2F790911501292B20931501C1110FC078
S11306B021E030E0A90102C0440F551F8A95E2F7FA
S11306C0CA0190911401892B8093140112C0C13086
S11306D081F421E030E0A90102C0440F551F8A953E
S11306E0E2F7CA0190911301892B8093130101C091
S11306F088DDDF91CF910895CF93909116019230C8
S113070009F43BC028F4992361F0913029F178C0B1
S1130710943009F454C008F441C0953009F460C021
S11307206FC0109212016DDDDED1DDD18170907841
S1130730992324F401978E6F9F6F0196C82FD3D10C
S113074087709078992324F40197886F9F6F01969E
S113075091E09093160163C090911201913031F4AD
S113076082E0809316011092120182C09F5F9093E1
S1130770120191E090931A0152C0809112018130CC
S113078031F483E0809316011092120178C08F5FD8
S11307908093120182E080931A016AC08091120151
S11307A0813031F484E080931601109212016EC0FE
S11307B08F5F8093120183E080931A0160C080915F
S11307C01201813031F485E08093160110921201F8
S11307D064C08F5F8093120184E080931A0156C035
S11307E080911201813029F41092160110921201A5
S11307F05EC08F5F8093120185E080931A014DC023
S11308009330E9F130F4913051F0923009F04FC057
S11308102FC09430D9F1953009F049C03EC0C111C0
S113082010C021E030E0A90102C0440F551F8A9591
S1130830E2F7CA01809590911401892380931401F1
S113084011C0C23079F421E030E0A90102C0440FA4
S1130850551F8A95E2F7CA01809590911301892367
S113086080931301809115018160809315011FC04D
S1130870809115018E7F82608093150118C080914C
S113088015018D7F84608093150111C0809115013D
S11308908B7F8860809315010AC080911501877F42
S11308A08093150180911401816080931401CF918C
S11308B0089580911001909111018D3B22E09207DF
S11308C020F081E080930F0108958D32914020F44F
S11308D010920F0180E0089580E00895E0911701DF
S11308E08E2F90E08930910508F060C0FC01EA5B2E
S11308F0FF4FA9C081E08093170162C0DADF88232B
S113090021F082E0809317015DC081E0809317019C
S113091057C0CFDF882321F083E08093170154C0B0
S113092082E0809317014EC0C4DF882321F084E065
S1130930809317014BC083E08093170145C0B9DF52
S1130940882321F085E08093170142C084E08093DE
S113095017013CC0AEDF882321F086E080931701A5
S113096039C085E08093170133C0A3DF882321F0C9
S113097087E08093170130C086E0809317012AC076
S113098098DF882321F088E08093170127C087E04F
S11309908093170121C08DDF882321F081E08093AB
S11309A017010EC088E08093170118C08E2F90E0C5
S11309B0FC013197E830F10590F4E15BFF4F43C04F
S11309C020DC0DC03FDC0BC05EDC09C07CDC07C052
S11309D0F7DC05C072DD03C0EBDD01C08DDE809164
S11309E0140185B98091150188B9809113018BB9DF
S11309F008957BDB11B88FEF82B987B918B884B931
S1130A0015B88AB91BB810921B01109219011092E3
S1130A10180110921C0110921A011092160164E63A
S1130A2070E080E090E0DCDB7BDB80E065DB9093D2
S1130A3011018093100152DF80910E018823E1F3AC
S1130A4010920E01F2CFEE0FFF1F0024001C0BBE0C
S1130A500790F691E02D09948F929F92AF92BF92E6
S1130A60CF92DF92EF92FF92CF93DF93EC016881F4
S1130A7079818A819B81611571058105910521F434
S1130A8064E279ED8BE597E02DE133EF41E050E04E
S1130A9038D049015A019B01AC01A7EAB1E44DD019
S1130AA06B017C01ACEEB4EFA501940152D0DC01E2
S1130AB0CB018C0D9D1DAE1DBF1DB7FF03C001975B
S1130AC0A109B04888839983AA83BB839F77DF9168
S1130AD0CF91FF90EF90DF90CF90BF90AF909F9019
S1130AE08F900895B9CF80E091E0B6CFA0E0B0E058
S1130AF08093000190930101A0930201B09303013C
S1130B000895052E97FB16F400940FD057FD05D0D9
S1130B1024D007FC02D046F408C050954095309587
S1130B2021953F4F4F4F5F4F089590958095709555
S1130B3061957F4F8F4F9F4F089531D0A59F900DA2
S1130B40B49F900DA49F800D911D11240895B7FFAB
S1130B50F4CFF3DF821B930B0895A1E21A2EAA1B94
S1130B60BB1BFD010DC0AA1FBB1FEE1FFF1FA21759
S1130B70B307E407F50720F0A21BB30BE40BF50B56
S1130B80661F771F881F991F1A9469F760957095DF
S1130B90809590959B01AC01BD01CF010895A29F62
S1130BA0B001B39FC001A39F700D811D1124911D3D
S1130BB0B29F700D811D1124911D0895F894FFCFEB
S10D0BC00100000001000000020023
S9030000FC
