:1000000056C0000071C000006FC000006DC000004D
:100010006BC0000069C0000067C0000065C0000040
:1000200063C0000061C000005FC000005DC0000050
:100030005BC000007EC0000057C0000055C000003B
:1000400053C0000051C000004FC000004DC0000070
:100050004BC0000049C0000047C0000045C0000080
:1000600043C0000041C000003FC000003DC0000090
:100070003BC0000039C0000037C0000035C00000A0
:1000800033C0000031C000002FC0000060046404D1
:100090006F047A04850490049B04A604B104C6048A
:1000A000C804CA04CC04CE04D004D204D40411245D
:1000B0001FBECFEFD0E4DEBFCDBF11E0A0E0B1E0C6
:1000C000EAE8FBE000E00BBF02C007900D92AA3007
:1000D000B107D9F721E0AAE0B1E001C01D92AC312F
:1000E000B207E1F76CD44FC58BCF8BE080938100D2
:1000F0008DE790E0909389008093880082E0809360
:100100006F001092850010928400809104019091FC
:100110000501A0910601B091070180930A01909317
:100120000B01A0930C01B0930D018FB780688FBFB6
:1001300008951F920F920FB60F9211248F939F93E1
:10014000AF93BF9380910A0190910B01A0910C0194
:10015000B0910D010197A109B10980930A01909313
:100160000B01A0930C01B0930D01892B8A2B8B2BD3
:1001700099F481E080930E01809104019091050132
:10018000A0910601B091070180930A0190930B01A1
:10019000A0930C01B0930D01BF91AF919F918F91EE
:1001A0000F900FBE0F901F901895609304017093ED
:1001B0000501809306019093070160930A017093F3
:1001C0000B0180930C0190930D0108955091130140
:1001D0004091120120E030E061E070E0CB01022E9E
:1001E00002C0880F991F0A94E2F78095582348238C
:1001F0002F5F3F4F2830310589F75093130140930B
:10020000120180911401807F809314010895509110
:1002100013014091120120E030E061E070E0CB0179
:10022000022E02C0880F991F0A94E2F78095582386
:1002300048232F5F3F4F2830310589F75093130132
:1002400040931201809114018F60809314010895EE
:1002500080911A01813041F018F0823049F00CC0D1
:1002600081E080931A0110C082E080931A010EC0D1
:1002700081E080931A0108C0813031F018F082309B
:1002800031F404C0A3CF0895C2CF08959FCF08953D
:1002900080911801823011F128F4882341F08130D7
:1002A00069F04CC0833051F18430C1F147C01092E5
:1002B00011018CDF81E0809318014BC08091110106
:1002C00090910801891306C082E080931801109272
:1002D000110146C08F5F809311013BC080911101D5
:1002E00090910801891306C083E080931801109251
:1002F00011013DC08F5F8093110132C080911101C7
:1003000090910801891306C084E08093180110922F
:10031000110134C08F5F8093110129C080911101B8
:1003200090910801891306C081E080931801109212
:1003300011010FC08F5F8093110120C0823081F0C6
:1003400018F4813009F505C0833089F08430E1F478
:1003500015C080911401877F8160809314010895F6
:10036000809114018E7F82608093140108958091A2
:1003700014018D7F8460809314010895809114018D
:100380008B7F8860809314010895809117018230DB
:1003900011F128F4882341F0813069F04CC083309A
:1003A00051F18430C1F147C032DF1092110181E078
:1003B000809317014BC0809111019091080189131E
:1003C00006C082E0809317011092110146C08F5F32
:1003D000809311013BC08091110190910801891314
:1003E00006C083E080931701109211013DC08F5F1A
:1003F0008093110132C080911101909108018913FD
:1004000006C084E0809317011092110134C08F5F01
:100410008093110129C080911101909108018913E5
:1004200006C081E080931701109211010FC08F5F09
:100430008093110120C0823081F018F4813009F5D9
:1004400005C0833089F08430E1F415C080EF8093DB
:1004500013018FEF8093120108958FE080931301B1
:100460008FEF80931201089580EF809312018FEF38
:100470008093130108958FE0809312018FEF809392
:100480001301089580911B01823011F128F4882313
:1004900041F0813069F04EC0833051F18430C1F1B8
:1004A00049C094DE1092110181E080931B014DC080
:1004B0008091110190910801891306C082E0809318
:1004C0001B011092110147C08F5F809311013DC045
:1004D0008091110190910801891306C083E08093F7
:1004E0001B01109211013DC08F5F8093110133C039
:1004F0008091110190910801891306C084E08093D6
:100500001B011092110133C08F5F8093110129C02C
:100510008091110190910801891308C01092140173
:1005200081E080931B01109211010FC08F5F8093B7
:1005300011011DC0823079F018F48130E9F405C052
:10054000833079F08430C1F412C08091140181604D
:1005500080931401089580911401826080931401A6
:10056000089580911401846080931401089580910E
:1005700014018860809314010895CF93DF939091C4
:100580001901913041F118F09230B1F163C010922D
:1005900011011CDE8DD283709078992324F4019789
:1005A0008C6F9F6F0196D82F83D28170907899239A
:1005B00024F401978E6F9F6F0196C82F79D28770B0
:1005C0009078992324F40197886F9F6F019691E0AA
:1005D0009093190144C090911101923031F482E05E
:1005E000809319011092110168C09F5F90931101CF
:1005F00091E09093190133C080911101823019F577
:1006000057D283709078992324F401978C6F9F6F51
:100610000196D82F4DD281709078992324F40197B8
:100620008E6F9F6F0196C82F43D287709078992361
:1006300024F40197886F9F6F019691E090931901C0
:10064000109211010CC08F5F8093110182E08093A2
:10065000190133C0913019F0923081F52EC021E09C
:1006600030E002C0220F331FDA95E2F790911401B7
:10067000292B20931401C1110FC021E030E0A90102
:1006800002C0440F551F8A95E2F7CA0190911301E9
:10069000892B8093130112C0C13081F421E030E036
:1006A000A90102C0440F551F8A95E2F7CA01909133
:1006B0001201892B8093120101C088DDDF91CF9157
:1006C0000895CF9390911501923009F43BC028F41E
:1006D000992361F0913029F178C0943009F454C025
:1006E00008F441C0953009F460C06FC01092110148
:1006F0006DDDDED1DDD181709078992324F40197EE
:100700008E6F9F6F0196C82FD3D1877090789923F1
:1007100024F40197886F9F6F019691E090931501E3
:1007200063C090911101913031F482E08093150102
:100730001092110182C09F5F9093110191E09093FC
:10074000190152C080911101813031F483E080930E
:1007500015011092110178C08F5F8093110182E022
:10076000809319016AC080911101813031F484E0D5
:1007700080931501109211016EC08F5F809311015B
:1007800083E08093190160C080911101813031F4C0
:1007900085E0809315011092110164C08F5F8093F2
:1007A000110184E08093190156C0809111018130BC
:1007B00029F410921501109211015EC08F5F809391
:1007C000110185E0809319014DC09330E9F130F4B7
:1007D000913051F0923009F04FC02FC09430D9F1D0
:1007E000953009F049C03EC0C11110C021E030E091
:1007F000A90102C0440F551F8A95E2F7CA018095EE
:100800009091130189238093130111C0C23079F4B0
:1008100021E030E0A90102C0440F551F8A95E2F79C
:10082000CA018095909112018923809312018091D1
:1008300014018160809314011FC0809114018E7F88
:1008400082608093140118C0809114018D7F8460B0
:100850008093140111C0809114018B7F8860809374
:1008600014010AC080911401877F80931401809144
:100870001301816080931301CF910895909110012D
:10088000992341F080910F0181110CC081E0809388
:100890000F01089580910F01882329F010920F0114
:1008A000892F089580E00895E09116018E2F90E041
:1008B0008930910508F060C0FC01EA5BFF4FA8C0D9
:1008C00081E08093160162C0D9DF882321F082E0A5
:1008D000809316015DC081E08093160157C0CEDF82
:1008E000882321F083E08093160154C082E0809336
:1008F00016014EC0C3DF882321F084E080931601E7
:100900004BC083E08093160145C0B8DF882321F0F7
:1009100085E08093160142C084E0809316013CC0BC
:10092000ADDF882321F086E08093160139C085E091
:100930008093160133C0A2DF882321F087E08093E3
:10094000160130C086E0809316012AC097DF882305
:1009500021F088E08093160127C087E0809316017C
:1009600021C08CDF882321F081E0809316010EC026
:1009700088E08093160118C08E2F90E0FC0131971B
:10098000E830F10590F4E15BFF4F42C01FDC0DC081
:100990003EDC0BC05DDC09C07BDC07C0F6DC05C0BB
:1009A00071DD03C0EADD01C08CDE8091140182B9E3
:1009B0008091130185B9809112018BB908958FEF51
:1009C00081B912B817B888B984B915B88AB91BB8F3
:1009D00010921A01109218011092170110921B0127
:1009E000109219011092150164E670E080E090E029
:1009F000DCDB7BDBC1E086B18C278170809310014A
:100A000053DF80910E018823E1F310920E01F3CFA2
:100A1000EE0FFF1F0024001C0BBE0790F691E02D87
:100A200009948F929F92AF92BF92CF92DF92EF92F2
:100A3000FF92CF93DF93EC01688179818A819B815A
:100A4000611571058105910521F464E279ED8BE56D
:100A500097E02DE133EF41E050E038D049015A01F1
:100A60009B01AC01A7EAB1E44DD06B017C01ACEE77
:100A7000B4EFA501940152D0DC01CB018C0D9D1D7A
:100A8000AE1DBF1DB7FF03C00197A109B048888301
:100A90009983AA83BB839F77DF91CF91FF90EF90DB
:100AA000DF90CF90BF90AF909F908F900895B9CF77
:100AB00080E091E0B6CFA0E0B0E080930001909399
:100AC0000101A0930201B09303010895052E97FB45
:100AD00016F400940FD057FD05D024D007FC02D0A7
:100AE00046F408C050954095309521953F4F4F4FA3
:100AF0005F4F089590958095709561957F4F8F4FCA
:100B00009F4F089531D0A59F900DB49F900DA49F45
:100B1000800D911D11240895B7FFF4CFF3DF821BE0
:100B2000930B0895A1E21A2EAA1BBB1BFD010DC059
:100B3000AA1FBB1FEE1FFF1FA217B307E407F5078D
:100B400020F0A21BB30BE40BF50B661F771F881F69
:100B5000991F1A9469F760957095809590959B01FF
:100B6000AC01BD01CF010895A29FB001B39FC001A8
:100B7000A39F700D811D1124911DB29F700D811DC9
:0A0B80001124911D0895F894FFCF91
:0A0B8A00010000000100000002005D
:00000001FF
