:1000000054C000006FC000006DC000006BC0000055
:1000100069C0000067C0000065C0000063C0000048
:1000200061C000005FC000005DC000005BC0000058
:1000300059C000007CC0000055C0000053C0000043
:1000400051C000004FC000004DC000004BC0000078
:1000500049C0000047C0000045C0000043C0000088
:1000600041C000003FC000003DC000003BC0000098
:1000700039C0000037C0000035C0000033C00000A8
:1000800031C000002FC000002DC00000250329034F
:1000900034033F034A03550360036B038003820369
:1000A0008403860388038A038C0311241FBECFEFC9
:1000B000D0E4DEBFCDBF11E0A0E0B1E0E0E8F9E0C0
:1000C00000E00BBF02C007900D92AA30B107D9F72C
:1000D00021E0AAE0B1E001C01D92AB31B207E1F727
:1000E00026D34CC48DCF8BE0809381008DE790E0C8
:1000F000909389008093880082E080936F00109233
:100100008500109284008091040190910501A091D6
:100110000601B091070180930A0190930B01A0930F
:100120000C01B0930D018FB780688FBF08951F92A7
:100130000F920FB60F9211248F939F93AF93BF939B
:1001400080910A0190910B01A0910C01B0910D01D9
:100150000197A109B10980930A0190930B01A09323
:100160000C01B0930D01892B8A2B8B2B99F481E024
:1001700080930E018091040190910501A0910601E8
:10018000B091070180930A0190930B01A0930C0199
:10019000B0930D01BF91AF919F918F910F900FBEC2
:1001A0000F901F9018956093040170930501809340
:1001B00006019093070160930A0170930B018093ED
:1001C0000C0190930D01089550911301409112017B
:1001D00020E030E061E070E0CB01022E02C0880F29
:1001E000991F0A94E2F78095582348232F5F3F4FC9
:1001F0002830310589F75093130140931201809103
:100200001401807F8093140108955091130140914F
:10021000120120E030E061E070E0CB01022E02C06C
:10022000880F991F0A94E2F78095582348232F5F7F
:100230003F4F2830310589F7509313014093120145
:10024000809114018F6080931401089580911901A9
:10025000813041F018F0823049F00CC081E0809389
:1002600019010DC082E0809319010BC081E08093D9
:10027000190105C0813019F0823021F402C0C5CFC8
:100280000895A2CF089582309105E9F034F40097E3
:1002900059F08130910551F03DC08330910501F155
:1002A0008430910551F136C08FDF41C0809111013A
:1002B00090910801891303C0109211013FC08F5F14
:1002C0008093110134C0809111019091080189132C
:1002D00003C01092110139C08F5F809311012EC0AD
:1002E0008091110190910801891303C010921101AE
:1002F00033C08F5F8093110128C0809111019091CC
:100300000801891303C01092110111C08F5F8093FF
:10031000110122C08230910589F01CF4019711F57A
:1003200006C08330910589F00497E1F415C08091EF
:100330001401877F816080931401089580911401D6
:100340008E7F8260809314010895809114018D7FC7
:100350008460809314010895809114018B7F8860DC
:1003600080931401089580911601823029F128F4B8
:10037000882341F0813081F04FC0833069F18430AF
:10038000D9F14AC021DF109211018FE0809314014E
:1003900081E0809316014BC080911101909108017A
:1003A000891306C082E0809316011092110145C0A6
:1003B0008F5F809311013BC08091110190910801E2
:1003C000891306C083E080931601109211013BC08F
:1003D0008F5F8093110131C08091110190910801CC
:1003E000891306C084E0809316011092110131C078
:1003F0008F5F8093110127C08091110190910801B6
:10040000891306C081E080931601109211010FC07C
:100410008F5F809311011DC0823079F018F4813014
:10042000E9F405C0833079F08430C1F412C080EF64
:10043000809313011092120108958FE080931301AD
:1004400010921201089580EF80931201109213010F
:1004500008958FE080931201109213010895823065
:100460009105F9F034F4009759F08130910561F06D
:1004700041C08330910511F18430910561F13AC09A
:10048000A3DE1092110143C08091110190910801E7
:10049000891303C01092110140C08F5F8093110136
:1004A00036C08091110190910801891303C0109208
:1004B000110139C08F5F809311012FC0809111010C
:1004C00090910801891303C01092110132C08F5F0F
:1004D0008093110128C08091110190910801891326
:1004E00005C0109214011092110111C08F5F80930A
:1004F00011011FC08230910581F01CF40197F1F4C5
:1005000006C08330910579F00497C1F412C0809140
:100510001401816080931401089580911401826018
:1005200080931401089580911401846080931401D4
:100530000895809114018860809314010895CF93E9
:10054000DF9310921101909118019130D1F018F0C1
:100550009230E9F023C038DE63E070E080E090E0A4
:100560005CD1D82F61E070E080E090E056D1C82FD8
:1005700067E070E080E090E050D191E09093180146
:1005800012C091E090931101909318010CC081E08A
:100590008093110182E08093180131C0913019F0ED
:1005A000923071F52CC021E030E002C0220F331FE1
:1005B000DA95E2F790911401292B20931401C111CF
:1005C0000FC021E030E0A90102C0440F551F8A95F9
:1005D000E2F7CA0190911301892B8093130110C097
:1005E00021E030E0A90102C0440F551F8A95E2F7CF
:1005F000CA0190911201892B8093120101C0E4DDA0
:10060000DF91CF91089590911001992341F080914D
:100610000F0181110CC081E080930F01089580913A
:100620000F01882329F010920F01892F089580E08F
:100630000895E09115018E2F90E08830910508F023
:1006400055C0FC01EA5BFF4F97C081E08093150124
:1006500057C0D9DF882321F082E08093150152C072
:1006600081E0809315014CC0CEDF882321F083E028
:100670008093150149C082E08093150143C0C3DF18
:10068000882321F084E08093150140C083E08093AB
:1006900015013AC0B8DF882321F085E08093150169
:1006A00037C084E08093150131C0ADDF882321F08D
:1006B00086E0809315012EC085E08093150128C047
:1006C000A2DF882321F087E08093150125C086E012
:1006D000809315011FC097DF882321F081E080936C
:1006E00015010EC087E08093150116C08E2F90E093
:1006F000FC013197E730F10580F4E25BFF4F3CC02D
:1007000063DD0BC082DD09C0A1DD07C0BCDD05C013
:100710002ADE03C0A4DE01C012DF8091140182B979
:100720008091130185B9809112018BB908958FEFE3
:1007300081B912B817B888B984B915B88AB91BB885
:10074000109217011092160110921A0110921801BE
:1007500064E670E080E090E026DDC5DCC1E086B1B3
:100760008C2781708093100164DF80910E018823B3
:10077000E1F3C0930E01F3CFEE0FFF1F0024001C26
:100780000BBE0790F691E02D09948F929F92AF9245
:10079000BF92CF92DF92EF92FF92CF93DF93EC0163
:1007A000688179818A819B81611571058105910537
:1007B00021F464E279ED8BE597E02DE133EF41E040
:1007C00050E07FD049015A019B01AC01A7EAB1E496
:1007D00094D06B017C01ACEEB4EFA501940199D0EB
:1007E000DC01CB018C0D9D1DAE1DBF1DB7FF03C0ED
:1007F0000197A109B04888839983AA83BB83BC0170
:10080000CD019F77DF91CF91FF90EF90DF90CF9058
:10081000BF90AF909F908F9008958F929F92AF92CC
:10082000BF92CF92DF92EF92FF92609100017091A0
:10083000010180910201909103016115710581050B
:10084000910521F464E279ED8BE597E02DE133EF3A
:1008500041E050E036D049015A019B01AC01A7EAC2
:10086000B1E44BD06B017C01ACEEB4EFA501940177
:1008700050D0DC01CB018C0D9D1DAE1DBF1DB7FFFF
:1008800003C00197A109B048809300019093010132
:10089000A0930201B0930301BC01CD019F77FF90AB
:1008A000EF90DF90CF90BF90AF909F908F90089582
:1008B0006093000170930101809302019093030102
:1008C0000895052E97FB16F400940FD057FD05D020
:1008D00024D007FC02D046F408C0509540953095CE
:1008E00021953F4F4F4F5F4F08959095809570959C
:1008F00061957F4F8F4F9F4F089531D0A59F900DE9
:10090000B49F900DA49F800D911D11240895B7FFF1
:10091000F4CFF3DF821B930B0895A1E21A2EAA1BDA
:10092000BB1BFD010DC0AA1FBB1FEE1FFF1FA2179F
:10093000B307E407F50720F0A21BB30BE40BF50B9C
:10094000661F771F881F991F1A9469F76095709525
:10095000809590959B01AC01BD01CF010895A29FA8
:10096000B001B39FC001A39F700D811D1124911D83
:10097000B29F700D811D1124911D0895F894FFCF31
:0A0980000100000001000000020069
:00000001FF
